{
  "_format": "hh-sol-artifact-1",
  "contractName": "Account",
  "sourceName": "contracts/Account.sol",
  "abi": [
    {
      "inputs": [
        {
          "internalType": "string",
          "name": "_name",
          "type": "string"
        },
        {
          "internalType": "address",
          "name": "_owner",
          "type": "address"
        }
      ],
      "stateMutability": "nonpayable",
      "type": "constructor"
    },
    {
      "inputs": [
        {
          "internalType": "address",
          "name": "token",
          "type": "address"
        },
        {
          "internalType": "uint256",
          "name": "amount",
          "type": "uint256"
        }
      ],
      "name": "deposit",
      "outputs": [],
      "stateMutability": "payable",
      "type": "function"
    },
    {
      "inputs": [],
      "name": "getAllTokens",
      "outputs": [
        {
          "internalType": "address[]",
          "name": "",
          "type": "address[]"
        }
      ],
      "stateMutability": "view",
      "type": "function"
    },
    {
      "inputs": [
        {
          "internalType": "address",
          "name": "_a",
          "type": "address"
        }
      ],
      "name": "getTokenAmount",
      "outputs": [
        {
          "internalType": "uint256",
          "name": "",
          "type": "uint256"
        }
      ],
      "stateMutability": "view",
      "type": "function"
    },
    {
      "inputs": [],
      "name": "name",
      "outputs": [
        {
          "internalType": "string",
          "name": "",
          "type": "string"
        }
      ],
      "stateMutability": "view",
      "type": "function"
    },
    {
      "inputs": [],
      "name": "owner",
      "outputs": [
        {
          "internalType": "address",
          "name": "",
          "type": "address"
        }
      ],
      "stateMutability": "view",
      "type": "function"
    },
    {
      "inputs": [
        {
          "internalType": "address",
          "name": "token",
          "type": "address"
        },
        {
          "internalType": "uint256",
          "name": "amount",
          "type": "uint256"
        }
      ],
      "name": "setTokenToAmount",
      "outputs": [],
      "stateMutability": "nonpayable",
      "type": "function"
    },
    {
      "inputs": [
        {
          "internalType": "address",
          "name": "",
          "type": "address"
        }
      ],
      "name": "tokenToAmount",
      "outputs": [
        {
          "internalType": "uint256",
          "name": "",
          "type": "uint256"
        }
      ],
      "stateMutability": "view",
      "type": "function"
    },
    {
      "inputs": [
        {
          "internalType": "uint256",
          "name": "",
          "type": "uint256"
        }
      ],
      "name": "tokens",
      "outputs": [
        {
          "internalType": "address",
          "name": "",
          "type": "address"
        }
      ],
      "stateMutability": "view",
      "type": "function"
    },
    {
      "inputs": [
        {
          "internalType": "address",
          "name": "token",
          "type": "address"
        },
        {
          "internalType": "address",
          "name": "to",
          "type": "address"
        },
        {
          "internalType": "uint256",
          "name": "amount",
          "type": "uint256"
        }
      ],
      "name": "transfer",
      "outputs": [],
      "stateMutability": "payable",
      "type": "function"
    },
    {
      "inputs": [
        {
          "internalType": "address",
          "name": "token",
          "type": "address"
        },
        {
          "internalType": "uint256",
          "name": "amount",
          "type": "uint256"
        }
      ],
      "name": "withdraw",
      "outputs": [],
      "stateMutability": "payable",
      "type": "function"
    }
  ],
  "bytecode": "0x60806040523480156200001157600080fd5b5060405162001993380380620019938339818101604052810190620000379190620001d2565b81600290805190602001906200004f92919062000099565b5080600360006101000a81548173ffffffffffffffffffffffffffffffffffffffff021916908373ffffffffffffffffffffffffffffffffffffffff1602179055505050620003ab565b828054620000a790620002fd565b90600052602060002090601f016020900481019282620000cb576000855562000117565b82601f10620000e657805160ff191683800117855562000117565b8280016001018555821562000117579182015b8281111562000116578251825591602001919060010190620000f9565b5b5090506200012691906200012a565b5090565b5b80821115620001455760008160009055506001016200012b565b5090565b6000620001606200015a8462000260565b6200022c565b9050828152602081018484840111156200017957600080fd5b62000186848285620002c7565b509392505050565b6000815190506200019f8162000391565b92915050565b600082601f830112620001b757600080fd5b8151620001c984826020860162000149565b91505092915050565b60008060408385031215620001e657600080fd5b600083015167ffffffffffffffff8111156200020157600080fd5b6200020f85828601620001a5565b925050602062000222858286016200018e565b9150509250929050565b6000604051905081810181811067ffffffffffffffff8211171562000256576200025562000362565b5b8060405250919050565b600067ffffffffffffffff8211156200027e576200027d62000362565b5b601f19601f8301169050602081019050919050565b6000620002a082620002a7565b9050919050565b600073ffffffffffffffffffffffffffffffffffffffff82169050919050565b60005b83811015620002e7578082015181840152602081019050620002ca565b83811115620002f7576000848401525b50505050565b600060028204905060018216806200031657607f821691505b602082108114156200032d576200032c62000333565b5b50919050565b7f4e487b7100000000000000000000000000000000000000000000000000000000600052602260045260246000fd5b7f4e487b7100000000000000000000000000000000000000000000000000000000600052604160045260246000fd5b6200039c8162000293565b8114620003a857600080fd5b50565b6115d880620003bb6000396000f3fe6080604052600436106100915760003560e01c80638da5cb5b116100595780638da5cb5b14610182578063b85de068146101ad578063beabacc8146101d6578063e6ae1a97146101f2578063f3fef3a31461022f57610091565b806306fdde03146100965780630bec81ed146100c15780632a5c792a146100fe57806347e7ef24146101295780634f64b2be14610145575b600080fd5b3480156100a257600080fd5b506100ab61024b565b6040516100b89190611285565b60405180910390f35b3480156100cd57600080fd5b506100e860048036038101906100e39190610e4e565b6102d9565b6040516100f59190611347565b60405180910390f35b34801561010a57600080fd5b506101136102f1565b6040516101209190611263565b60405180910390f35b610143600480360381019061013e9190610ec6565b61037f565b005b34801561015157600080fd5b5061016c60048036038101906101679190610f2b565b6106bb565b60405161017991906111bf565b60405180910390f35b34801561018e57600080fd5b506101976106fa565b6040516101a491906111bf565b60405180910390f35b3480156101b957600080fd5b506101d460048036038101906101cf9190610ec6565b610720565b005b6101f060048036038101906101eb9190610e77565b610826565b005b3480156101fe57600080fd5b5061021960048036038101906102149190610e4e565b610aec565b6040516102269190611347565b60405180910390f35b61024960048036038101906102449190610ec6565b610b35565b005b60028054610258906114bc565b80601f0160208091040260200160405190810160405280929190818152602001828054610284906114bc565b80156102d15780601f106102a6576101008083540402835291602001916102d1565b820191906000526020600020905b8154815290600101906020018083116102b457829003601f168201915b505050505081565b60016020528060005260406000206000915090505481565b6060600080548060200260200160405190810160405280929190818152602001828054801561037557602002820191906000526020600020905b8160009054906101000a900473ffffffffffffffffffffffffffffffffffffffff1673ffffffffffffffffffffffffffffffffffffffff168152602001906001019080831161032b575b5050505050905090565b600360009054906101000a900473ffffffffffffffffffffffffffffffffffffffff1673ffffffffffffffffffffffffffffffffffffffff163273ffffffffffffffffffffffffffffffffffffffff161461040f576040517f08c379a0000000000000000000000000000000000000000000000000000000008152600401610406906112e7565b60405180910390fd5b60008111610452576040517f08c379a0000000000000000000000000000000000000000000000000000000008152600401610449906112c7565b60405180910390fd5b6000829050818173ffffffffffffffffffffffffffffffffffffffff1663dd62ed3e32306040518363ffffffff1660e01b81526004016104939291906111da565b60206040518083038186803b1580156104ab57600080fd5b505afa1580156104bf573d6000803e3d6000fd5b505050506040513d601f19601f820116820180604052508101906104e39190610f54565b1015610524576040517f08c379a000000000000000000000000000000000000000000000000000000000815260040161051b90611307565b60405180910390fd5b8073ffffffffffffffffffffffffffffffffffffffff166323b872dd3230856040518463ffffffff1660e01b815260040161056193929190611203565b602060405180830381600087803b15801561057b57600080fd5b505af115801561058f573d6000803e3d6000fd5b505050506040513d601f19601f820116820180604052508101906105b39190610f02565b506000600160008573ffffffffffffffffffffffffffffffffffffffff1673ffffffffffffffffffffffffffffffffffffffff168152602001908152602001600020541415610660576000839080600181540180825580915050600190039060005260206000200160009091909190916101000a81548173ffffffffffffffffffffffffffffffffffffffff021916908373ffffffffffffffffffffffffffffffffffffffff1602179055505b81600160008573ffffffffffffffffffffffffffffffffffffffff1673ffffffffffffffffffffffffffffffffffffffff16815260200190815260200160002060008282546106af91906113b7565b92505081905550505050565b600081815481106106cb57600080fd5b906000526020600020016000915054906101000a900473ffffffffffffffffffffffffffffffffffffffff1681565b600360009054906101000a900473ffffffffffffffffffffffffffffffffffffffff1681565b6000600160008473ffffffffffffffffffffffffffffffffffffffff1673ffffffffffffffffffffffffffffffffffffffff1681526020019081526020016000205414156107cc576000829080600181540180825580915050600190039060005260206000200160009091909190916101000a81548173ffffffffffffffffffffffffffffffffffffffff021916908373ffffffffffffffffffffffffffffffffffffffff1602179055505b80600160008473ffffffffffffffffffffffffffffffffffffffff1673ffffffffffffffffffffffffffffffffffffffff168152602001908152602001600020600082825461081b91906113b7565b925050819055505050565b600360009054906101000a900473ffffffffffffffffffffffffffffffffffffffff1673ffffffffffffffffffffffffffffffffffffffff163273ffffffffffffffffffffffffffffffffffffffff16146108b6576040517f08c379a00000000000000000000000000000000000000000000000000000000081526004016108ad906112e7565b60405180910390fd5b600081116108f9576040517f08c379a00000000000000000000000000000000000000000000000000000000081526004016108f0906112c7565b60405180910390fd5b6000600160008573ffffffffffffffffffffffffffffffffffffffff1673ffffffffffffffffffffffffffffffffffffffff168152602001908152602001600020541161097b576040517f08c379a0000000000000000000000000000000000000000000000000000000008152600401610972906112a7565b60405180910390fd5b80600160008573ffffffffffffffffffffffffffffffffffffffff1673ffffffffffffffffffffffffffffffffffffffff1681526020019081526020016000205410156109fd576040517f08c379a00000000000000000000000000000000000000000000000000000000081526004016109f490611327565b60405180910390fd5b60008390508073ffffffffffffffffffffffffffffffffffffffff1663a9059cbb84846040518363ffffffff1660e01b8152600401610a3d92919061123a565b602060405180830381600087803b158015610a5757600080fd5b505af1158015610a6b573d6000803e3d6000fd5b505050506040513d601f19601f82011682018060405250810190610a8f9190610f02565b5081600160008673ffffffffffffffffffffffffffffffffffffffff1673ffffffffffffffffffffffffffffffffffffffff1681526020019081526020016000206000828254610adf919061140d565b9250508190555050505050565b6000600160008373ffffffffffffffffffffffffffffffffffffffff1673ffffffffffffffffffffffffffffffffffffffff168152602001908152602001600020549050919050565b600360009054906101000a900473ffffffffffffffffffffffffffffffffffffffff1673ffffffffffffffffffffffffffffffffffffffff163273ffffffffffffffffffffffffffffffffffffffff1614610bc5576040517f08c379a0000000000000000000000000000000000000000000000000000000008152600401610bbc906112e7565b60405180910390fd5b60008111610c08576040517f08c379a0000000000000000000000000000000000000000000000000000000008152600401610bff906112c7565b60405180910390fd5b6000600160008473ffffffffffffffffffffffffffffffffffffffff1673ffffffffffffffffffffffffffffffffffffffff1681526020019081526020016000205411610c8a576040517f08c379a0000000000000000000000000000000000000000000000000000000008152600401610c81906112a7565b60405180910390fd5b80600160008473ffffffffffffffffffffffffffffffffffffffff1673ffffffffffffffffffffffffffffffffffffffff168152602001908152602001600020541015610d0c576040517f08c379a0000000000000000000000000000000000000000000000000000000008152600401610d0390611327565b60405180910390fd5b60008290508073ffffffffffffffffffffffffffffffffffffffff1663a9059cbb32846040518363ffffffff1660e01b8152600401610d4c92919061123a565b602060405180830381600087803b158015610d6657600080fd5b505af1158015610d7a573d6000803e3d6000fd5b505050506040513d601f19601f82011682018060405250810190610d9e9190610f02565b5081600160008573ffffffffffffffffffffffffffffffffffffffff1673ffffffffffffffffffffffffffffffffffffffff1681526020019081526020016000206000828254610dee919061140d565b92505081905550505050565b600081359050610e098161155d565b92915050565b600081519050610e1e81611574565b92915050565b600081359050610e338161158b565b92915050565b600081519050610e488161158b565b92915050565b600060208284031215610e6057600080fd5b6000610e6e84828501610dfa565b91505092915050565b600080600060608486031215610e8c57600080fd5b6000610e9a86828701610dfa565b9350506020610eab86828701610dfa565b9250506040610ebc86828701610e24565b9150509250925092565b60008060408385031215610ed957600080fd5b6000610ee785828601610dfa565b9250506020610ef885828601610e24565b9150509250929050565b600060208284031215610f1457600080fd5b6000610f2284828501610e0f565b91505092915050565b600060208284031215610f3d57600080fd5b6000610f4b84828501610e24565b91505092915050565b600060208284031215610f6657600080fd5b6000610f7484828501610e39565b91505092915050565b6000610f898383610f95565b60208301905092915050565b610f9e81611441565b82525050565b610fad81611441565b82525050565b6000610fbe82611372565b610fc88185611395565b9350610fd383611362565b8060005b83811015611004578151610feb8882610f7d565b9750610ff683611388565b925050600181019050610fd7565b5085935050505092915050565b600061101c8261137d565b61102681856113a6565b9350611036818560208601611489565b61103f8161154c565b840191505092915050565b6000611057601a836113a6565b91507f596f7520646f6e742068617665207468697320746f6b656e21210000000000006000830152602082019050919050565b6000611097601f836113a6565b91507f416d6f756e74206d7573742062652067726561746572207468616e20302121006000830152602082019050919050565b60006110d76022836113a6565b91507f596f7520617265206e6f74206f776e6572206f662074686973206163636f756e60008301527f74210000000000000000000000000000000000000000000000000000000000006020830152604082019050919050565b600061113d600f836113a6565b91507f4e6f7420616c6c6f7720796574212100000000000000000000000000000000006000830152602082019050919050565b600061117d601c836113a6565b91507f416d6f756e742065786365656420796f75722062616c616e63652121000000006000830152602082019050919050565b6111b98161147f565b82525050565b60006020820190506111d46000830184610fa4565b92915050565b60006040820190506111ef6000830185610fa4565b6111fc6020830184610fa4565b9392505050565b60006060820190506112186000830186610fa4565b6112256020830185610fa4565b61123260408301846111b0565b949350505050565b600060408201905061124f6000830185610fa4565b61125c60208301846111b0565b9392505050565b6000602082019050818103600083015261127d8184610fb3565b905092915050565b6000602082019050818103600083015261129f8184611011565b905092915050565b600060208201905081810360008301526112c08161104a565b9050919050565b600060208201905081810360008301526112e08161108a565b9050919050565b60006020820190508181036000830152611300816110ca565b9050919050565b6000602082019050818103600083015261132081611130565b9050919050565b6000602082019050818103600083015261134081611170565b9050919050565b600060208201905061135c60008301846111b0565b92915050565b6000819050602082019050919050565b600081519050919050565b600081519050919050565b6000602082019050919050565b600082825260208201905092915050565b600082825260208201905092915050565b60006113c28261147f565b91506113cd8361147f565b9250827fffffffffffffffffffffffffffffffffffffffffffffffffffffffffffffffff03821115611402576114016114ee565b5b828201905092915050565b60006114188261147f565b91506114238361147f565b925082821015611436576114356114ee565b5b828203905092915050565b600061144c8261145f565b9050919050565b60008115159050919050565b600073ffffffffffffffffffffffffffffffffffffffff82169050919050565b6000819050919050565b60005b838110156114a757808201518184015260208101905061148c565b838111156114b6576000848401525b50505050565b600060028204905060018216806114d457607f821691505b602082108114156114e8576114e761151d565b5b50919050565b7f4e487b7100000000000000000000000000000000000000000000000000000000600052601160045260246000fd5b7f4e487b7100000000000000000000000000000000000000000000000000000000600052602260045260246000fd5b6000601f19601f8301169050919050565b61156681611441565b811461157157600080fd5b50565b61157d81611453565b811461158857600080fd5b50565b6115948161147f565b811461159f57600080fd5b5056fea26469706673582212202a16fa609980a9e2375815bf0dcb7e1127d628704d701c1b13608535bc91a98364736f6c63430008000033",
  "linkReferences": {},
  "deployedLinkReferences": {}
}