{
  "_format": "hh-sol-artifact-1",
  "contractName": "Bank",
  "sourceName": "contracts/Bank.sol",
  "abi": [
    {
      "inputs": [],
      "stateMutability": "nonpayable",
      "type": "constructor"
    },
    {
      "inputs": [
        {
          "internalType": "string",
          "name": "",
          "type": "string"
        }
      ],
      "name": "accounts",
      "outputs": [
        {
          "internalType": "address",
          "name": "",
          "type": "address"
        }
      ],
      "stateMutability": "view",
      "type": "function"
    },
    {
      "inputs": [
        {
          "internalType": "address",
          "name": "",
          "type": "address"
        },
        {
          "internalType": "uint256",
          "name": "",
          "type": "uint256"
        }
      ],
      "name": "allAccounts",
      "outputs": [
        {
          "internalType": "address",
          "name": "",
          "type": "address"
        }
      ],
      "stateMutability": "view",
      "type": "function"
    },
    {
      "inputs": [
        {
          "internalType": "string",
          "name": "name",
          "type": "string"
        }
      ],
      "name": "createAccount",
      "outputs": [
        {
          "internalType": "address",
          "name": "_account",
          "type": "address"
        }
      ],
      "stateMutability": "nonpayable",
      "type": "function"
    },
    {
      "inputs": [
        {
          "internalType": "string",
          "name": "name",
          "type": "string"
        },
        {
          "internalType": "address",
          "name": "token",
          "type": "address"
        },
        {
          "internalType": "uint256",
          "name": "amount",
          "type": "uint256"
        }
      ],
      "name": "deposit",
      "outputs": [],
      "stateMutability": "payable",
      "type": "function"
    },
    {
      "inputs": [
        {
          "internalType": "string",
          "name": "a",
          "type": "string"
        }
      ],
      "name": "getAccounts",
      "outputs": [
        {
          "internalType": "address",
          "name": "",
          "type": "address"
        }
      ],
      "stateMutability": "view",
      "type": "function"
    },
    {
      "inputs": [
        {
          "internalType": "address",
          "name": "a",
          "type": "address"
        }
      ],
      "name": "getAllAccounts",
      "outputs": [
        {
          "internalType": "address[]",
          "name": "",
          "type": "address[]"
        }
      ],
      "stateMutability": "view",
      "type": "function"
    },
    {
      "inputs": [
        {
          "internalType": "string",
          "name": "name",
          "type": "string"
        },
        {
          "internalType": "address[]",
          "name": "token",
          "type": "address[]"
        },
        {
          "internalType": "string[]",
          "name": "_to",
          "type": "string[]"
        },
        {
          "internalType": "uint256[]",
          "name": "_amount",
          "type": "uint256[]"
        }
      ],
      "name": "multipleTransfer",
      "outputs": [],
      "stateMutability": "payable",
      "type": "function"
    },
    {
      "inputs": [],
      "name": "owner",
      "outputs": [
        {
          "internalType": "address",
          "name": "",
          "type": "address"
        }
      ],
      "stateMutability": "view",
      "type": "function"
    },
    {
      "inputs": [
        {
          "internalType": "string",
          "name": "name",
          "type": "string"
        },
        {
          "internalType": "address",
          "name": "token",
          "type": "address"
        },
        {
          "internalType": "string",
          "name": "_to",
          "type": "string"
        },
        {
          "internalType": "uint256",
          "name": "amount",
          "type": "uint256"
        }
      ],
      "name": "transfer",
      "outputs": [],
      "stateMutability": "payable",
      "type": "function"
    },
    {
      "inputs": [
        {
          "internalType": "string",
          "name": "name",
          "type": "string"
        },
        {
          "internalType": "address",
          "name": "token",
          "type": "address"
        },
        {
          "internalType": "uint256",
          "name": "amount",
          "type": "uint256"
        }
      ],
      "name": "withdraw",
      "outputs": [],
      "stateMutability": "payable",
      "type": "function"
    }
  ],
  "bytecode": "0x608060405234801561001057600080fd5b5033600260006101000a81548173ffffffffffffffffffffffffffffffffffffffff021916908373ffffffffffffffffffffffffffffffffffffffff160217905550613b98806100616000396000f3fe6080604052600436106200009e5760003560e01c80635a73b0bf11620000615780635a73b0bf14620001af5780637b77fa5114620001cf5780638da5cb5b1462000213578063afd4c9401462000243578063b23360bc1462000287576200009e565b8063250d119314620000a3578063298daf5b14620000c35780632a48ac9a146200010757806330390414146200012757806345a2db5c146200016b575b600080fd5b620000c16004803603810190620000bb919062001910565b620002a7565b005b348015620000d057600080fd5b50620000ef6004803603810190620000e99190620017be565b62000882565b604051620000fe919062001cdc565b60405180910390f35b6200012560048036038101906200011f9190620018a1565b62000af6565b005b3480156200013457600080fd5b506200015360048036038101906200014d9190620017be565b62000c64565b60405162000162919062001cdc565b60405180910390f35b3480156200017857600080fd5b50620001976004803603810190620001919190620016dc565b62000cad565b604051620001a6919062001d63565b60405180910390f35b620001cd6004803603810190620001c79190620018a1565b62000d7c565b005b348015620001dc57600080fd5b50620001fb6004803603810190620001f5919062001775565b62000eea565b6040516200020a919062001cdc565b60405180910390f35b3480156200022057600080fd5b506200022b62000f36565b6040516200023a919062001cdc565b60405180910390f35b3480156200025057600080fd5b506200026f600480360381019062000269919062001734565b62000f5c565b6040516200027e919062001cdc565b60405180910390f35b620002a560048036038101906200029f919062001803565b62000fab565b005b600073ffffffffffffffffffffffffffffffffffffffff16600085604051620002d1919062001cc3565b908152602001604051809103902060009054906101000a900473ffffffffffffffffffffffffffffffffffffffff1673ffffffffffffffffffffffffffffffffffffffff1614156200035a576040517f08c379a0000000000000000000000000000000000000000000000000000000008152600401620003519062001e43565b60405180910390fd5b8151835114620003a1576040517f08c379a0000000000000000000000000000000000000000000000000000000008152600401620003989062001dff565b60405180910390fd5b8051835114620003e8576040517f08c379a0000000000000000000000000000000000000000000000000000000008152600401620003df9062001dff565b60405180910390fd5b60968351111562000430576040517f08c379a0000000000000000000000000000000000000000000000000000000008152600401620004279062001e21565b60405180910390fd5b6000808560405162000443919062001cc3565b908152602001604051809103902060009054906101000a900473ffffffffffffffffffffffffffffffffffffffff16905060005b83518110156200087a57600080858381518110620004be577f4e487b7100000000000000000000000000000000000000000000000000000000600052603260045260246000fd5b6020026020010151604051620004d5919062001cc3565b908152602001604051809103902060009054906101000a900473ffffffffffffffffffffffffffffffffffffffff169050600084838151811062000542577f4e487b7100000000000000000000000000000000000000000000000000000000600052603260045260246000fd5b602002602001015190503273ffffffffffffffffffffffffffffffffffffffff168273ffffffffffffffffffffffffffffffffffffffff16638da5cb5b6040518163ffffffff1660e01b815260040160206040518083038186803b158015620005aa57600080fd5b505afa158015620005bf573d6000803e3d6000fd5b505050506040513d601f19601f82011682018060405250810190620005e5919062001708565b73ffffffffffffffffffffffffffffffffffffffff1614620006fc57600060648262000612919062001fb9565b9050808262000622919062001ff1565b91508473ffffffffffffffffffffffffffffffffffffffff1663beabacc88986815181106200067a577f4e487b7100000000000000000000000000000000000000000000000000000000600052603260045260246000fd5b6020026020010151600260009054906101000a900473ffffffffffffffffffffffffffffffffffffffff16846040518463ffffffff1660e01b8152600401620006c69392919062001cf9565b600060405180830381600087803b158015620006e157600080fd5b505af1158015620006f6573d6000803e3d6000fd5b50505050505b8373ffffffffffffffffffffffffffffffffffffffff1663beabacc888858151811062000752577f4e487b7100000000000000000000000000000000000000000000000000000000600052603260045260246000fd5b602002602001015184846040518463ffffffff1660e01b81526004016200077c9392919062001cf9565b600060405180830381600087803b1580156200079757600080fd5b505af1158015620007ac573d6000803e3d6000fd5b505050508173ffffffffffffffffffffffffffffffffffffffff1663b85de06888858151811062000806577f4e487b7100000000000000000000000000000000000000000000000000000000600052603260045260246000fd5b6020026020010151836040518363ffffffff1660e01b81526004016200082e92919062001d36565b600060405180830381600087803b1580156200084957600080fd5b505af11580156200085e573d6000803e3d6000fd5b50505050505080806200087190620020af565b91505062000477565b505050505050565b60008073ffffffffffffffffffffffffffffffffffffffff16600083604051620008ad919062001cc3565b908152602001604051809103902060009054906101000a900473ffffffffffffffffffffffffffffffffffffffff1673ffffffffffffffffffffffffffffffffffffffff161462000935576040517f08c379a00000000000000000000000000000000000000000000000000000000081526004016200092c9062001ddd565b60405180910390fd5b81326040516200094590620013f4565b6200095292919062001d87565b604051809103906000f0801580156200096f573d6000803e3d6000fd5b5060008360405162000982919062001cc3565b908152602001604051809103902060006101000a81548173ffffffffffffffffffffffffffffffffffffffff021916908373ffffffffffffffffffffffffffffffffffffffff160217905550600160003273ffffffffffffffffffffffffffffffffffffffff1673ffffffffffffffffffffffffffffffffffffffff16815260200190815260200160002060008360405162000a1f919062001cc3565b908152602001604051809103902060009054906101000a900473ffffffffffffffffffffffffffffffffffffffff169080600181540180825580915050600190039060005260206000200160009091909190916101000a81548173ffffffffffffffffffffffffffffffffffffffff021916908373ffffffffffffffffffffffffffffffffffffffff16021790555060008260405162000ac0919062001cc3565b908152602001604051809103902060009054906101000a900473ffffffffffffffffffffffffffffffffffffffff169050919050565b600073ffffffffffffffffffffffffffffffffffffffff1660008460405162000b20919062001cc3565b908152602001604051809103902060009054906101000a900473ffffffffffffffffffffffffffffffffffffffff1673ffffffffffffffffffffffffffffffffffffffff16141562000ba9576040517f08c379a000000000000000000000000000000000000000000000000000000000815260040162000ba09062001e43565b60405180910390fd5b6000808460405162000bbc919062001cc3565b908152602001604051809103902060009054906101000a900473ffffffffffffffffffffffffffffffffffffffff1690508073ffffffffffffffffffffffffffffffffffffffff166347e7ef2484846040518363ffffffff1660e01b815260040162000c2a92919062001d36565b600060405180830381600087803b15801562000c4557600080fd5b505af115801562000c5a573d6000803e3d6000fd5b5050505050505050565b6000818051602081018201805184825260208301602085012081835280955050505050506000915054906101000a900473ffffffffffffffffffffffffffffffffffffffff1681565b6060600160008373ffffffffffffffffffffffffffffffffffffffff1673ffffffffffffffffffffffffffffffffffffffff16815260200190815260200160002080548060200260200160405190810160405280929190818152602001828054801562000d7057602002820191906000526020600020905b8160009054906101000a900473ffffffffffffffffffffffffffffffffffffffff1673ffffffffffffffffffffffffffffffffffffffff168152602001906001019080831162000d25575b50505050509050919050565b600073ffffffffffffffffffffffffffffffffffffffff1660008460405162000da6919062001cc3565b908152602001604051809103902060009054906101000a900473ffffffffffffffffffffffffffffffffffffffff1673ffffffffffffffffffffffffffffffffffffffff16141562000e2f576040517f08c379a000000000000000000000000000000000000000000000000000000000815260040162000e269062001e43565b60405180910390fd5b6000808460405162000e42919062001cc3565b908152602001604051809103902060009054906101000a900473ffffffffffffffffffffffffffffffffffffffff1690508073ffffffffffffffffffffffffffffffffffffffff1663f3fef3a384846040518363ffffffff1660e01b815260040162000eb092919062001d36565b600060405180830381600087803b15801562000ecb57600080fd5b505af115801562000ee0573d6000803e3d6000fd5b5050505050505050565b600080838360405162000eff92919062001ca8565b908152602001604051809103902060009054906101000a900473ffffffffffffffffffffffffffffffffffffffff16905092915050565b600260009054906101000a900473ffffffffffffffffffffffffffffffffffffffff1681565b6001602052816000526040600020818154811062000f7957600080fd5b906000526020600020016000915091509054906101000a900473ffffffffffffffffffffffffffffffffffffffff1681565b600073ffffffffffffffffffffffffffffffffffffffff1660008560405162000fd5919062001cc3565b908152602001604051809103902060009054906101000a900473ffffffffffffffffffffffffffffffffffffffff1673ffffffffffffffffffffffffffffffffffffffff1614156200105e576040517f08c379a0000000000000000000000000000000000000000000000000000000008152600401620010559062001e43565b60405180910390fd5b600073ffffffffffffffffffffffffffffffffffffffff1660008360405162001088919062001cc3565b908152602001604051809103902060009054906101000a900473ffffffffffffffffffffffffffffffffffffffff1673ffffffffffffffffffffffffffffffffffffffff16141562001111576040517f08c379a0000000000000000000000000000000000000000000000000000000008152600401620011089062001dbb565b60405180910390fd5b6000808560405162001124919062001cc3565b908152602001604051809103902060009054906101000a900473ffffffffffffffffffffffffffffffffffffffff1690506000808460405162001168919062001cc3565b908152602001604051809103902060009054906101000a900473ffffffffffffffffffffffffffffffffffffffff1690503273ffffffffffffffffffffffffffffffffffffffff168173ffffffffffffffffffffffffffffffffffffffff16638da5cb5b6040518163ffffffff1660e01b815260040160206040518083038186803b158015620011f757600080fd5b505afa1580156200120c573d6000803e3d6000fd5b505050506040513d601f19601f8201168201806040525081019062001232919062001708565b73ffffffffffffffffffffffffffffffffffffffff1614620013085760006064846200125f919062001fb9565b905080846200126f919062001ff1565b93508273ffffffffffffffffffffffffffffffffffffffff1663beabacc887600260009054906101000a900473ffffffffffffffffffffffffffffffffffffffff16846040518463ffffffff1660e01b8152600401620012d29392919062001cf9565b600060405180830381600087803b158015620012ed57600080fd5b505af115801562001302573d6000803e3d6000fd5b50505050505b8173ffffffffffffffffffffffffffffffffffffffff1663beabacc88683866040518463ffffffff1660e01b8152600401620013479392919062001cf9565b600060405180830381600087803b1580156200136257600080fd5b505af115801562001377573d6000803e3d6000fd5b505050508073ffffffffffffffffffffffffffffffffffffffff1663b85de06886856040518363ffffffff1660e01b8152600401620013b892919062001d36565b600060405180830381600087803b158015620013d357600080fd5b505af1158015620013e8573d6000803e3d6000fd5b50505050505050505050565b61199380620021d083390190565b600062001419620014138462001e99565b62001e65565b905080838252602082019050828560208602820111156200143957600080fd5b60005b858110156200146d578162001452888262001596565b8452602084019350602083019250506001810190506200143c565b5050509392505050565b60006200148e620014888462001ec8565b62001e65565b9050808382526020820190508260005b85811015620014d25781358501620014b7888262001698565b8452602084019350602083019250506001810190506200149e565b5050509392505050565b6000620014f3620014ed8462001ef7565b62001e65565b905080838252602082019050828560208602820111156200151357600080fd5b60005b858110156200154757816200152c8882620016c5565b84526020840193506020830192505060018101905062001516565b5050509392505050565b600062001568620015628462001f26565b62001e65565b9050828152602081018484840111156200158157600080fd5b6200158e8482856200206a565b509392505050565b600081359050620015a7816200219b565b92915050565b600081519050620015be816200219b565b92915050565b600082601f830112620015d657600080fd5b8135620015e884826020860162001402565b91505092915050565b600082601f8301126200160357600080fd5b81356200161584826020860162001477565b91505092915050565b600082601f8301126200163057600080fd5b813562001642848260208601620014dc565b91505092915050565b60008083601f8401126200165e57600080fd5b8235905067ffffffffffffffff8111156200167857600080fd5b6020830191508360018202830111156200169157600080fd5b9250929050565b600082601f830112620016aa57600080fd5b8135620016bc84826020860162001551565b91505092915050565b600081359050620016d681620021b5565b92915050565b600060208284031215620016ef57600080fd5b6000620016ff8482850162001596565b91505092915050565b6000602082840312156200171b57600080fd5b60006200172b84828501620015ad565b91505092915050565b600080604083850312156200174857600080fd5b6000620017588582860162001596565b92505060206200176b85828601620016c5565b9150509250929050565b600080602083850312156200178957600080fd5b600083013567ffffffffffffffff811115620017a457600080fd5b620017b2858286016200164b565b92509250509250929050565b600060208284031215620017d157600080fd5b600082013567ffffffffffffffff811115620017ec57600080fd5b620017fa8482850162001698565b91505092915050565b600080600080608085870312156200181a57600080fd5b600085013567ffffffffffffffff8111156200183557600080fd5b620018438782880162001698565b9450506020620018568782880162001596565b935050604085013567ffffffffffffffff8111156200187457600080fd5b620018828782880162001698565b92505060606200189587828801620016c5565b91505092959194509250565b600080600060608486031215620018b757600080fd5b600084013567ffffffffffffffff811115620018d257600080fd5b620018e08682870162001698565b9350506020620018f38682870162001596565b92505060406200190686828701620016c5565b9150509250925092565b600080600080608085870312156200192757600080fd5b600085013567ffffffffffffffff8111156200194257600080fd5b620019508782880162001698565b945050602085013567ffffffffffffffff8111156200196e57600080fd5b6200197c87828801620015c4565b935050604085013567ffffffffffffffff8111156200199a57600080fd5b620019a887828801620015f1565b925050606085013567ffffffffffffffff811115620019c657600080fd5b620019d4878288016200161e565b91505092959194509250565b6000620019ee8383620019fa565b60208301905092915050565b62001a05816200202c565b82525050565b62001a16816200202c565b82525050565b600062001a298262001f69565b62001a35818562001f8c565b935062001a428362001f59565b8060005b8381101562001a7957815162001a5d8882620019e0565b975062001a6a8362001f7f565b92505060018101905062001a46565b5085935050505092915050565b600062001a94838562001fae565b935062001aa38385846200206a565b82840190509392505050565b600062001abc8262001f74565b62001ac8818562001f9d565b935062001ada81856020860162002079565b62001ae5816200218a565b840191505092915050565b600062001afd8262001f74565b62001b09818562001fae565b935062001b1b81856020860162002079565b80840191505092915050565b600062001b36601d8362001f9d565b91507f4e6f7420666f756e64206163636f756e7420746f2073656e6420746f210000006000830152602082019050919050565b600062001b7860148362001f9d565b91507f4e616d6520616c726561647920696e20757365640000000000000000000000006000830152602082019050919050565b600062001bba60318362001f9d565b91507f506172616d6574657273206973206e6f742072656c6174656420746f2065616360008301527f68206f74686572286c656e6774682921210000000000000000000000000000006020830152604082019050919050565b600062001c22601d8362001f9d565b91507f4c656e67746820697320657863656564206c696d6974283135302921210000006000830152602082019050919050565b600062001c6460128362001f9d565b91507f4e6f7420666f756e64206163636f756e742100000000000000000000000000006000830152602082019050919050565b62001ca28162002060565b82525050565b600062001cb782848662001a86565b91508190509392505050565b600062001cd1828462001af0565b915081905092915050565b600060208201905062001cf3600083018462001a0b565b92915050565b600060608201905062001d10600083018662001a0b565b62001d1f602083018562001a0b565b62001d2e604083018462001c97565b949350505050565b600060408201905062001d4d600083018562001a0b565b62001d5c602083018462001c97565b9392505050565b6000602082019050818103600083015262001d7f818462001a1c565b905092915050565b6000604082019050818103600083015262001da3818562001aaf565b905062001db4602083018462001a0b565b9392505050565b6000602082019050818103600083015262001dd68162001b27565b9050919050565b6000602082019050818103600083015262001df88162001b69565b9050919050565b6000602082019050818103600083015262001e1a8162001bab565b9050919050565b6000602082019050818103600083015262001e3c8162001c13565b9050919050565b6000602082019050818103600083015262001e5e8162001c55565b9050919050565b6000604051905081810181811067ffffffffffffffff8211171562001e8f5762001e8e6200215b565b5b8060405250919050565b600067ffffffffffffffff82111562001eb75762001eb66200215b565b5b602082029050602081019050919050565b600067ffffffffffffffff82111562001ee65762001ee56200215b565b5b602082029050602081019050919050565b600067ffffffffffffffff82111562001f155762001f146200215b565b5b602082029050602081019050919050565b600067ffffffffffffffff82111562001f445762001f436200215b565b5b601f19601f8301169050602081019050919050565b6000819050602082019050919050565b600081519050919050565b600081519050919050565b6000602082019050919050565b600082825260208201905092915050565b600082825260208201905092915050565b600081905092915050565b600062001fc68262002060565b915062001fd38362002060565b92508262001fe65762001fe56200212c565b5b828204905092915050565b600062001ffe8262002060565b91506200200b8362002060565b925082821015620020215762002020620020fd565b5b828203905092915050565b6000620020398262002040565b9050919050565b600073ffffffffffffffffffffffffffffffffffffffff82169050919050565b6000819050919050565b82818337600083830152505050565b60005b83811015620020995780820151818401526020810190506200207c565b83811115620020a9576000848401525b50505050565b6000620020bc8262002060565b91507fffffffffffffffffffffffffffffffffffffffffffffffffffffffffffffffff821415620020f257620020f1620020fd565b5b600182019050919050565b7f4e487b7100000000000000000000000000000000000000000000000000000000600052601160045260246000fd5b7f4e487b7100000000000000000000000000000000000000000000000000000000600052601260045260246000fd5b7f4e487b7100000000000000000000000000000000000000000000000000000000600052604160045260246000fd5b6000601f19601f8301169050919050565b620021a6816200202c565b8114620021b257600080fd5b50565b620021c08162002060565b8114620021cc57600080fd5b5056fe60806040523480156200001157600080fd5b5060405162001993380380620019938339818101604052810190620000379190620001d2565b81600290805190602001906200004f92919062000099565b5080600360006101000a81548173ffffffffffffffffffffffffffffffffffffffff021916908373ffffffffffffffffffffffffffffffffffffffff1602179055505050620003ab565b828054620000a790620002fd565b90600052602060002090601f016020900481019282620000cb576000855562000117565b82601f10620000e657805160ff191683800117855562000117565b8280016001018555821562000117579182015b8281111562000116578251825591602001919060010190620000f9565b5b5090506200012691906200012a565b5090565b5b80821115620001455760008160009055506001016200012b565b5090565b6000620001606200015a8462000260565b6200022c565b9050828152602081018484840111156200017957600080fd5b62000186848285620002c7565b509392505050565b6000815190506200019f8162000391565b92915050565b600082601f830112620001b757600080fd5b8151620001c984826020860162000149565b91505092915050565b60008060408385031215620001e657600080fd5b600083015167ffffffffffffffff8111156200020157600080fd5b6200020f85828601620001a5565b925050602062000222858286016200018e565b9150509250929050565b6000604051905081810181811067ffffffffffffffff8211171562000256576200025562000362565b5b8060405250919050565b600067ffffffffffffffff8211156200027e576200027d62000362565b5b601f19601f8301169050602081019050919050565b6000620002a082620002a7565b9050919050565b600073ffffffffffffffffffffffffffffffffffffffff82169050919050565b60005b83811015620002e7578082015181840152602081019050620002ca565b83811115620002f7576000848401525b50505050565b600060028204905060018216806200031657607f821691505b602082108114156200032d576200032c62000333565b5b50919050565b7f4e487b7100000000000000000000000000000000000000000000000000000000600052602260045260246000fd5b7f4e487b7100000000000000000000000000000000000000000000000000000000600052604160045260246000fd5b6200039c8162000293565b8114620003a857600080fd5b50565b6115d880620003bb6000396000f3fe6080604052600436106100915760003560e01c80638da5cb5b116100595780638da5cb5b14610182578063b85de068146101ad578063beabacc8146101d6578063e6ae1a97146101f2578063f3fef3a31461022f57610091565b806306fdde03146100965780630bec81ed146100c15780632a5c792a146100fe57806347e7ef24146101295780634f64b2be14610145575b600080fd5b3480156100a257600080fd5b506100ab61024b565b6040516100b89190611285565b60405180910390f35b3480156100cd57600080fd5b506100e860048036038101906100e39190610e4e565b6102d9565b6040516100f59190611347565b60405180910390f35b34801561010a57600080fd5b506101136102f1565b6040516101209190611263565b60405180910390f35b610143600480360381019061013e9190610ec6565b61037f565b005b34801561015157600080fd5b5061016c60048036038101906101679190610f2b565b6106bb565b60405161017991906111bf565b60405180910390f35b34801561018e57600080fd5b506101976106fa565b6040516101a491906111bf565b60405180910390f35b3480156101b957600080fd5b506101d460048036038101906101cf9190610ec6565b610720565b005b6101f060048036038101906101eb9190610e77565b610826565b005b3480156101fe57600080fd5b5061021960048036038101906102149190610e4e565b610aec565b6040516102269190611347565b60405180910390f35b61024960048036038101906102449190610ec6565b610b35565b005b60028054610258906114bc565b80601f0160208091040260200160405190810160405280929190818152602001828054610284906114bc565b80156102d15780601f106102a6576101008083540402835291602001916102d1565b820191906000526020600020905b8154815290600101906020018083116102b457829003601f168201915b505050505081565b60016020528060005260406000206000915090505481565b6060600080548060200260200160405190810160405280929190818152602001828054801561037557602002820191906000526020600020905b8160009054906101000a900473ffffffffffffffffffffffffffffffffffffffff1673ffffffffffffffffffffffffffffffffffffffff168152602001906001019080831161032b575b5050505050905090565b600360009054906101000a900473ffffffffffffffffffffffffffffffffffffffff1673ffffffffffffffffffffffffffffffffffffffff163273ffffffffffffffffffffffffffffffffffffffff161461040f576040517f08c379a0000000000000000000000000000000000000000000000000000000008152600401610406906112e7565b60405180910390fd5b60008111610452576040517f08c379a0000000000000000000000000000000000000000000000000000000008152600401610449906112c7565b60405180910390fd5b6000829050818173ffffffffffffffffffffffffffffffffffffffff1663dd62ed3e32306040518363ffffffff1660e01b81526004016104939291906111da565b60206040518083038186803b1580156104ab57600080fd5b505afa1580156104bf573d6000803e3d6000fd5b505050506040513d601f19601f820116820180604052508101906104e39190610f54565b1015610524576040517f08c379a000000000000000000000000000000000000000000000000000000000815260040161051b90611307565b60405180910390fd5b8073ffffffffffffffffffffffffffffffffffffffff166323b872dd3230856040518463ffffffff1660e01b815260040161056193929190611203565b602060405180830381600087803b15801561057b57600080fd5b505af115801561058f573d6000803e3d6000fd5b505050506040513d601f19601f820116820180604052508101906105b39190610f02565b506000600160008573ffffffffffffffffffffffffffffffffffffffff1673ffffffffffffffffffffffffffffffffffffffff168152602001908152602001600020541415610660576000839080600181540180825580915050600190039060005260206000200160009091909190916101000a81548173ffffffffffffffffffffffffffffffffffffffff021916908373ffffffffffffffffffffffffffffffffffffffff1602179055505b81600160008573ffffffffffffffffffffffffffffffffffffffff1673ffffffffffffffffffffffffffffffffffffffff16815260200190815260200160002060008282546106af91906113b7565b92505081905550505050565b600081815481106106cb57600080fd5b906000526020600020016000915054906101000a900473ffffffffffffffffffffffffffffffffffffffff1681565b600360009054906101000a900473ffffffffffffffffffffffffffffffffffffffff1681565b6000600160008473ffffffffffffffffffffffffffffffffffffffff1673ffffffffffffffffffffffffffffffffffffffff1681526020019081526020016000205414156107cc576000829080600181540180825580915050600190039060005260206000200160009091909190916101000a81548173ffffffffffffffffffffffffffffffffffffffff021916908373ffffffffffffffffffffffffffffffffffffffff1602179055505b80600160008473ffffffffffffffffffffffffffffffffffffffff1673ffffffffffffffffffffffffffffffffffffffff168152602001908152602001600020600082825461081b91906113b7565b925050819055505050565b600360009054906101000a900473ffffffffffffffffffffffffffffffffffffffff1673ffffffffffffffffffffffffffffffffffffffff163273ffffffffffffffffffffffffffffffffffffffff16146108b6576040517f08c379a00000000000000000000000000000000000000000000000000000000081526004016108ad906112e7565b60405180910390fd5b600081116108f9576040517f08c379a00000000000000000000000000000000000000000000000000000000081526004016108f0906112c7565b60405180910390fd5b6000600160008573ffffffffffffffffffffffffffffffffffffffff1673ffffffffffffffffffffffffffffffffffffffff168152602001908152602001600020541161097b576040517f08c379a0000000000000000000000000000000000000000000000000000000008152600401610972906112a7565b60405180910390fd5b80600160008573ffffffffffffffffffffffffffffffffffffffff1673ffffffffffffffffffffffffffffffffffffffff1681526020019081526020016000205410156109fd576040517f08c379a00000000000000000000000000000000000000000000000000000000081526004016109f490611327565b60405180910390fd5b60008390508073ffffffffffffffffffffffffffffffffffffffff1663a9059cbb84846040518363ffffffff1660e01b8152600401610a3d92919061123a565b602060405180830381600087803b158015610a5757600080fd5b505af1158015610a6b573d6000803e3d6000fd5b505050506040513d601f19601f82011682018060405250810190610a8f9190610f02565b5081600160008673ffffffffffffffffffffffffffffffffffffffff1673ffffffffffffffffffffffffffffffffffffffff1681526020019081526020016000206000828254610adf919061140d565b9250508190555050505050565b6000600160008373ffffffffffffffffffffffffffffffffffffffff1673ffffffffffffffffffffffffffffffffffffffff168152602001908152602001600020549050919050565b600360009054906101000a900473ffffffffffffffffffffffffffffffffffffffff1673ffffffffffffffffffffffffffffffffffffffff163273ffffffffffffffffffffffffffffffffffffffff1614610bc5576040517f08c379a0000000000000000000000000000000000000000000000000000000008152600401610bbc906112e7565b60405180910390fd5b60008111610c08576040517f08c379a0000000000000000000000000000000000000000000000000000000008152600401610bff906112c7565b60405180910390fd5b6000600160008473ffffffffffffffffffffffffffffffffffffffff1673ffffffffffffffffffffffffffffffffffffffff1681526020019081526020016000205411610c8a576040517f08c379a0000000000000000000000000000000000000000000000000000000008152600401610c81906112a7565b60405180910390fd5b80600160008473ffffffffffffffffffffffffffffffffffffffff1673ffffffffffffffffffffffffffffffffffffffff168152602001908152602001600020541015610d0c576040517f08c379a0000000000000000000000000000000000000000000000000000000008152600401610d0390611327565b60405180910390fd5b60008290508073ffffffffffffffffffffffffffffffffffffffff1663a9059cbb32846040518363ffffffff1660e01b8152600401610d4c92919061123a565b602060405180830381600087803b158015610d6657600080fd5b505af1158015610d7a573d6000803e3d6000fd5b505050506040513d601f19601f82011682018060405250810190610d9e9190610f02565b5081600160008573ffffffffffffffffffffffffffffffffffffffff1673ffffffffffffffffffffffffffffffffffffffff1681526020019081526020016000206000828254610dee919061140d565b92505081905550505050565b600081359050610e098161155d565b92915050565b600081519050610e1e81611574565b92915050565b600081359050610e338161158b565b92915050565b600081519050610e488161158b565b92915050565b600060208284031215610e6057600080fd5b6000610e6e84828501610dfa565b91505092915050565b600080600060608486031215610e8c57600080fd5b6000610e9a86828701610dfa565b9350506020610eab86828701610dfa565b9250506040610ebc86828701610e24565b9150509250925092565b60008060408385031215610ed957600080fd5b6000610ee785828601610dfa565b9250506020610ef885828601610e24565b9150509250929050565b600060208284031215610f1457600080fd5b6000610f2284828501610e0f565b91505092915050565b600060208284031215610f3d57600080fd5b6000610f4b84828501610e24565b91505092915050565b600060208284031215610f6657600080fd5b6000610f7484828501610e39565b91505092915050565b6000610f898383610f95565b60208301905092915050565b610f9e81611441565b82525050565b610fad81611441565b82525050565b6000610fbe82611372565b610fc88185611395565b9350610fd383611362565b8060005b83811015611004578151610feb8882610f7d565b9750610ff683611388565b925050600181019050610fd7565b5085935050505092915050565b600061101c8261137d565b61102681856113a6565b9350611036818560208601611489565b61103f8161154c565b840191505092915050565b6000611057601a836113a6565b91507f596f7520646f6e742068617665207468697320746f6b656e21210000000000006000830152602082019050919050565b6000611097601f836113a6565b91507f416d6f756e74206d7573742062652067726561746572207468616e20302121006000830152602082019050919050565b60006110d76022836113a6565b91507f596f7520617265206e6f74206f776e6572206f662074686973206163636f756e60008301527f74210000000000000000000000000000000000000000000000000000000000006020830152604082019050919050565b600061113d600f836113a6565b91507f4e6f7420616c6c6f7720796574212100000000000000000000000000000000006000830152602082019050919050565b600061117d601c836113a6565b91507f416d6f756e742065786365656420796f75722062616c616e63652121000000006000830152602082019050919050565b6111b98161147f565b82525050565b60006020820190506111d46000830184610fa4565b92915050565b60006040820190506111ef6000830185610fa4565b6111fc6020830184610fa4565b9392505050565b60006060820190506112186000830186610fa4565b6112256020830185610fa4565b61123260408301846111b0565b949350505050565b600060408201905061124f6000830185610fa4565b61125c60208301846111b0565b9392505050565b6000602082019050818103600083015261127d8184610fb3565b905092915050565b6000602082019050818103600083015261129f8184611011565b905092915050565b600060208201905081810360008301526112c08161104a565b9050919050565b600060208201905081810360008301526112e08161108a565b9050919050565b60006020820190508181036000830152611300816110ca565b9050919050565b6000602082019050818103600083015261132081611130565b9050919050565b6000602082019050818103600083015261134081611170565b9050919050565b600060208201905061135c60008301846111b0565b92915050565b6000819050602082019050919050565b600081519050919050565b600081519050919050565b6000602082019050919050565b600082825260208201905092915050565b600082825260208201905092915050565b60006113c28261147f565b91506113cd8361147f565b9250827fffffffffffffffffffffffffffffffffffffffffffffffffffffffffffffffff03821115611402576114016114ee565b5b828201905092915050565b60006114188261147f565b91506114238361147f565b925082821015611436576114356114ee565b5b828203905092915050565b600061144c8261145f565b9050919050565b60008115159050919050565b600073ffffffffffffffffffffffffffffffffffffffff82169050919050565b6000819050919050565b60005b838110156114a757808201518184015260208101905061148c565b838111156114b6576000848401525b50505050565b600060028204905060018216806114d457607f821691505b602082108114156114e8576114e761151d565b5b50919050565b7f4e487b7100000000000000000000000000000000000000000000000000000000600052601160045260246000fd5b7f4e487b7100000000000000000000000000000000000000000000000000000000600052602260045260246000fd5b6000601f19601f8301169050919050565b61156681611441565b811461157157600080fd5b50565b61157d81611453565b811461158857600080fd5b50565b6115948161147f565b811461159f57600080fd5b5056fea26469706673582212202a16fa609980a9e2375815bf0dcb7e1127d628704d701c1b13608535bc91a98364736f6c63430008000033a264697066735822122083f0aa76ac8efd1502af2be9273789b36f7f193c78f5c76a6114f9ba750bdcaa64736f6c63430008000033",
  "linkReferences": {},
  "deployedLinkReferences": {}
}